{
  "_format": "hh-sol-artifact-1",
  "contractName": "LazaiDAT",
  "sourceName": "contracts/LazaiDAT.sol",
  "abi": [
    {
      "inputs": [
        {
          "internalType": "address",
          "name": "initialOwner",
          "type": "address"
        }
      ],
      "stateMutability": "nonpayable",
      "type": "constructor"
    },
    {
      "inputs": [
        {
          "internalType": "address",
          "name": "sender",
          "type": "address"
        },
        {
          "internalType": "uint256",
          "name": "tokenId",
          "type": "uint256"
        },
        {
          "internalType": "address",
          "name": "owner",
          "type": "address"
        }
      ],
      "name": "ERC721IncorrectOwner",
      "type": "error"
    },
    {
      "inputs": [
        {
          "internalType": "address",
          "name": "operator",
          "type": "address"
        },
        {
          "internalType": "uint256",
          "name": "tokenId",
          "type": "uint256"
        }
      ],
      "name": "ERC721InsufficientApproval",
      "type": "error"
    },
    {
      "inputs": [
        {
          "internalType": "address",
          "name": "approver",
          "type": "address"
        }
      ],
      "name": "ERC721InvalidApprover",
      "type": "error"
    },
    {
      "inputs": [
        {
          "internalType": "address",
          "name": "operator",
          "type": "address"
        }
      ],
      "name": "ERC721InvalidOperator",
      "type": "error"
    },
    {
      "inputs": [
        {
          "internalType": "address",
          "name": "owner",
          "type": "address"
        }
      ],
      "name": "ERC721InvalidOwner",
      "type": "error"
    },
    {
      "inputs": [
        {
          "internalType": "address",
          "name": "receiver",
          "type": "address"
        }
      ],
      "name": "ERC721InvalidReceiver",
      "type": "error"
    },
    {
      "inputs": [
        {
          "internalType": "address",
          "name": "sender",
          "type": "address"
        }
      ],
      "name": "ERC721InvalidSender",
      "type": "error"
    },
    {
      "inputs": [
        {
          "internalType": "uint256",
          "name": "tokenId",
          "type": "uint256"
        }
      ],
      "name": "ERC721NonexistentToken",
      "type": "error"
    },
    {
      "inputs": [
        {
          "internalType": "address",
          "name": "owner",
          "type": "address"
        }
      ],
      "name": "OwnableInvalidOwner",
      "type": "error"
    },
    {
      "inputs": [
        {
          "internalType": "address",
          "name": "account",
          "type": "address"
        }
      ],
      "name": "OwnableUnauthorizedAccount",
      "type": "error"
    },
    {
      "anonymous": false,
      "inputs": [
        {
          "indexed": true,
          "internalType": "address",
          "name": "owner",
          "type": "address"
        },
        {
          "indexed": true,
          "internalType": "address",
          "name": "approved",
          "type": "address"
        },
        {
          "indexed": true,
          "internalType": "uint256",
          "name": "tokenId",
          "type": "uint256"
        }
      ],
      "name": "Approval",
      "type": "event"
    },
    {
      "anonymous": false,
      "inputs": [
        {
          "indexed": true,
          "internalType": "address",
          "name": "owner",
          "type": "address"
        },
        {
          "indexed": true,
          "internalType": "address",
          "name": "operator",
          "type": "address"
        },
        {
          "indexed": false,
          "internalType": "bool",
          "name": "approved",
          "type": "bool"
        }
      ],
      "name": "ApprovalForAll",
      "type": "event"
    },
    {
      "anonymous": false,
      "inputs": [
        {
          "indexed": false,
          "internalType": "uint256",
          "name": "_fromTokenId",
          "type": "uint256"
        },
        {
          "indexed": false,
          "internalType": "uint256",
          "name": "_toTokenId",
          "type": "uint256"
        }
      ],
      "name": "BatchMetadataUpdate",
      "type": "event"
    },
    {
      "anonymous": false,
      "inputs": [
        {
          "indexed": true,
          "internalType": "uint256",
          "name": "tokenId",
          "type": "uint256"
        },
        {
          "indexed": true,
          "internalType": "address",
          "name": "owner",
          "type": "address"
        },
        {
          "indexed": false,
          "internalType": "string",
          "name": "name",
          "type": "string"
        },
        {
          "indexed": false,
          "internalType": "uint256",
          "name": "price",
          "type": "uint256"
        }
      ],
      "name": "DATMinted",
      "type": "event"
    },
    {
      "anonymous": false,
      "inputs": [
        {
          "indexed": false,
          "internalType": "uint256",
          "name": "_tokenId",
          "type": "uint256"
        }
      ],
      "name": "MetadataUpdate",
      "type": "event"
    },
    {
      "anonymous": false,
      "inputs": [
        {
          "indexed": true,
          "internalType": "address",
          "name": "previousOwner",
          "type": "address"
        },
        {
          "indexed": true,
          "internalType": "address",
          "name": "newOwner",
          "type": "address"
        }
      ],
      "name": "OwnershipTransferred",
      "type": "event"
    },
    {
      "anonymous": false,
      "inputs": [
        {
          "indexed": true,
          "internalType": "address",
          "name": "from",
          "type": "address"
        },
        {
          "indexed": true,
          "internalType": "address",
          "name": "to",
          "type": "address"
        },
        {
          "indexed": true,
          "internalType": "uint256",
          "name": "tokenId",
          "type": "uint256"
        }
      ],
      "name": "Transfer",
      "type": "event"
    },
    {
      "inputs": [
        {
          "internalType": "address",
          "name": "to",
          "type": "address"
        },
        {
          "internalType": "uint256",
          "name": "tokenId",
          "type": "uint256"
        }
      ],
      "name": "approve",
      "outputs": [],
      "stateMutability": "nonpayable",
      "type": "function"
    },
    {
      "inputs": [
        {
          "internalType": "address",
          "name": "owner",
          "type": "address"
        }
      ],
      "name": "balanceOf",
      "outputs": [
        {
          "internalType": "uint256",
          "name": "",
          "type": "uint256"
        }
      ],
      "stateMutability": "view",
      "type": "function"
    },
    {
      "inputs": [
        {
          "internalType": "uint256",
          "name": "",
          "type": "uint256"
        }
      ],
      "name": "datMetadata",
      "outputs": [
        {
          "internalType": "string",
          "name": "name",
          "type": "string"
        },
        {
          "internalType": "string",
          "name": "description",
          "type": "string"
        },
        {
          "internalType": "uint256",
          "name": "price",
          "type": "uint256"
        }
      ],
      "stateMutability": "view",
      "type": "function"
    },
    {
      "inputs": [
        {
          "internalType": "uint256",
          "name": "tokenId",
          "type": "uint256"
        }
      ],
      "name": "getApproved",
      "outputs": [
        {
          "internalType": "address",
          "name": "",
          "type": "address"
        }
      ],
      "stateMutability": "view",
      "type": "function"
    },
    {
      "inputs": [
        {
          "internalType": "address",
          "name": "owner",
          "type": "address"
        },
        {
          "internalType": "address",
          "name": "operator",
          "type": "address"
        }
      ],
      "name": "isApprovedForAll",
      "outputs": [
        {
          "internalType": "bool",
          "name": "",
          "type": "bool"
        }
      ],
      "stateMutability": "view",
      "type": "function"
    },
    {
      "inputs": [],
      "name": "name",
      "outputs": [
        {
          "internalType": "string",
          "name": "",
          "type": "string"
        }
      ],
      "stateMutability": "view",
      "type": "function"
    },
    {
      "inputs": [],
      "name": "owner",
      "outputs": [
        {
          "internalType": "address",
          "name": "",
          "type": "address"
        }
      ],
      "stateMutability": "view",
      "type": "function"
    },
    {
      "inputs": [
        {
          "internalType": "uint256",
          "name": "tokenId",
          "type": "uint256"
        }
      ],
      "name": "ownerOf",
      "outputs": [
        {
          "internalType": "address",
          "name": "",
          "type": "address"
        }
      ],
      "stateMutability": "view",
      "type": "function"
    },
    {
      "inputs": [
        {
          "internalType": "uint256",
          "name": "tokenId",
          "type": "uint256"
        }
      ],
      "name": "purchase",
      "outputs": [],
      "stateMutability": "payable",
      "type": "function"
    },
    {
      "inputs": [],
      "name": "renounceOwnership",
      "outputs": [],
      "stateMutability": "nonpayable",
      "type": "function"
    },
    {
      "inputs": [
        {
          "internalType": "address",
          "name": "to",
          "type": "address"
        },
        {
          "internalType": "string",
          "name": "uri",
          "type": "string"
        },
        {
          "internalType": "string",
          "name": "name",
          "type": "string"
        },
        {
          "internalType": "string",
          "name": "description",
          "type": "string"
        },
        {
          "internalType": "uint256",
          "name": "price",
          "type": "uint256"
        }
      ],
      "name": "safeMint",
      "outputs": [],
      "stateMutability": "nonpayable",
      "type": "function"
    },
    {
      "inputs": [
        {
          "internalType": "address",
          "name": "from",
          "type": "address"
        },
        {
          "internalType": "address",
          "name": "to",
          "type": "address"
        },
        {
          "internalType": "uint256",
          "name": "tokenId",
          "type": "uint256"
        }
      ],
      "name": "safeTransferFrom",
      "outputs": [],
      "stateMutability": "nonpayable",
      "type": "function"
    },
    {
      "inputs": [
        {
          "internalType": "address",
          "name": "from",
          "type": "address"
        },
        {
          "internalType": "address",
          "name": "to",
          "type": "address"
        },
        {
          "internalType": "uint256",
          "name": "tokenId",
          "type": "uint256"
        },
        {
          "internalType": "bytes",
          "name": "data",
          "type": "bytes"
        }
      ],
      "name": "safeTransferFrom",
      "outputs": [],
      "stateMutability": "nonpayable",
      "type": "function"
    },
    {
      "inputs": [
        {
          "internalType": "address",
          "name": "operator",
          "type": "address"
        },
        {
          "internalType": "bool",
          "name": "approved",
          "type": "bool"
        }
      ],
      "name": "setApprovalForAll",
      "outputs": [],
      "stateMutability": "nonpayable",
      "type": "function"
    },
    {
      "inputs": [
        {
          "internalType": "bytes4",
          "name": "interfaceId",
          "type": "bytes4"
        }
      ],
      "name": "supportsInterface",
      "outputs": [
        {
          "internalType": "bool",
          "name": "",
          "type": "bool"
        }
      ],
      "stateMutability": "view",
      "type": "function"
    },
    {
      "inputs": [],
      "name": "symbol",
      "outputs": [
        {
          "internalType": "string",
          "name": "",
          "type": "string"
        }
      ],
      "stateMutability": "view",
      "type": "function"
    },
    {
      "inputs": [
        {
          "internalType": "uint256",
          "name": "tokenId",
          "type": "uint256"
        }
      ],
      "name": "tokenURI",
      "outputs": [
        {
          "internalType": "string",
          "name": "",
          "type": "string"
        }
      ],
      "stateMutability": "view",
      "type": "function"
    },
    {
      "inputs": [],
      "name": "totalSupply",
      "outputs": [
        {
          "internalType": "uint256",
          "name": "",
          "type": "uint256"
        }
      ],
      "stateMutability": "view",
      "type": "function"
    },
    {
      "inputs": [
        {
          "internalType": "address",
          "name": "from",
          "type": "address"
        },
        {
          "internalType": "address",
          "name": "to",
          "type": "address"
        },
        {
          "internalType": "uint256",
          "name": "tokenId",
          "type": "uint256"
        }
      ],
      "name": "transferFrom",
      "outputs": [],
      "stateMutability": "nonpayable",
      "type": "function"
    },
    {
      "inputs": [
        {
          "internalType": "address",
          "name": "newOwner",
          "type": "address"
        }
      ],
      "name": "transferOwnership",
      "outputs": [],
      "stateMutability": "nonpayable",
      "type": "function"
    }
  ],
  "bytecode": "0x60806040523480156200001157600080fd5b506040516200353138038062003531833981810160405281019062000037919062000288565b806040518060400160405280600881526020017f4c617a61694441540000000000000000000000000000000000000000000000008152506040518060400160405280600481526020017f4c444154000000000000000000000000000000000000000000000000000000008152508160009081620000b5919062000534565b508060019081620000c7919062000534565b505050600073ffffffffffffffffffffffffffffffffffffffff168173ffffffffffffffffffffffffffffffffffffffff16036200013f5760006040517f1e4fbdf70000000000000000000000000000000000000000000000000000000081526004016200013691906200062c565b60405180910390fd5b62000150816200015860201b60201c565b505062000649565b6000600760009054906101000a900473ffffffffffffffffffffffffffffffffffffffff16905081600760006101000a81548173ffffffffffffffffffffffffffffffffffffffff021916908373ffffffffffffffffffffffffffffffffffffffff1602179055508173ffffffffffffffffffffffffffffffffffffffff168173ffffffffffffffffffffffffffffffffffffffff167f8be0079c531659141344cd1fd0a4f28419497f9722a3daafe3b4186f6b6457e060405160405180910390a35050565b600080fd5b600073ffffffffffffffffffffffffffffffffffffffff82169050919050565b6000620002508262000223565b9050919050565b620002628162000243565b81146200026e57600080fd5b50565b600081519050620002828162000257565b92915050565b600060208284031215620002a157620002a06200021e565b5b6000620002b18482850162000271565b91505092915050565b600081519050919050565b7f4e487b7100000000000000000000000000000000000000000000000000000000600052604160045260246000fd5b7f4e487b7100000000000000000000000000000000000000000000000000000000600052602260045260246000fd5b600060028204905060018216806200033c57607f821691505b602082108103620003525762000351620002f4565b5b50919050565b60008190508160005260206000209050919050565b60006020601f8301049050919050565b600082821b905092915050565b600060088302620003bc7fffffffffffffffffffffffffffffffffffffffffffffffffffffffffffffffff826200037d565b620003c886836200037d565b95508019841693508086168417925050509392505050565b6000819050919050565b6000819050919050565b6000620004156200040f6200040984620003e0565b620003ea565b620003e0565b9050919050565b6000819050919050565b6200043183620003f4565b6200044962000440826200041c565b8484546200038a565b825550505050565b600090565b6200046062000451565b6200046d81848462000426565b505050565b5b8181101562000495576200048960008262000456565b60018101905062000473565b5050565b601f821115620004e457620004ae8162000358565b620004b9846200036d565b81016020851015620004c9578190505b620004e1620004d8856200036d565b83018262000472565b50505b505050565b600082821c905092915050565b60006200050960001984600802620004e9565b1980831691505092915050565b6000620005248383620004f6565b9150826002028217905092915050565b6200053f82620002ba565b67ffffffffffffffff8111156200055b576200055a620002c5565b5b62000567825462000323565b6200057482828562000499565b600060209050601f831160018114620005ac576000841562000597578287015190505b620005a3858262000516565b86555062000613565b601f198416620005bc8662000358565b60005b82811015620005e657848901518255600182019150602085019450602081019050620005bf565b8683101562000606578489015162000602601f891682620004f6565b8355505b6001600288020188555050505b505050505050565b620006268162000243565b82525050565b60006020820190506200064360008301846200061b565b92915050565b612ed880620006596000396000f3fe60806040526004361061011f5760003560e01c80638da5cb5b116100a0578063b88d4fde11610064578063b88d4fde146103e7578063c87b56dd14610410578063e985e9c51461044d578063efef39a11461048a578063f2fde38b146104a65761011f565b80638da5cb5b1461030057806395d89b411461032b5780639ca3d1c414610356578063a22cb46514610395578063b03ad3b2146103be5761011f565b806323b872dd116100e757806323b872dd1461021d57806342842e0e146102465780636352211e1461026f57806370a08231146102ac578063715018a6146102e95761011f565b806301ffc9a71461012457806306fdde0314610161578063081812fc1461018c578063095ea7b3146101c957806318160ddd146101f2575b600080fd5b34801561013057600080fd5b5061014b60048036038101906101469190612104565b6104cf565b604051610158919061214c565b60405180910390f35b34801561016d57600080fd5b506101766104e1565b60405161018391906121f7565b60405180910390f35b34801561019857600080fd5b506101b360048036038101906101ae919061224f565b610573565b6040516101c091906122bd565b60405180910390f35b3480156101d557600080fd5b506101f060048036038101906101eb9190612304565b61058f565b005b3480156101fe57600080fd5b506102076105a5565b6040516102149190612353565b60405180910390f35b34801561022957600080fd5b50610244600480360381019061023f919061236e565b6105af565b005b34801561025257600080fd5b5061026d6004803603810190610268919061236e565b6106b1565b005b34801561027b57600080fd5b506102966004803603810190610291919061224f565b6106d1565b6040516102a391906122bd565b60405180910390f35b3480156102b857600080fd5b506102d360048036038101906102ce91906123c1565b6106e3565b6040516102e09190612353565b60405180910390f35b3480156102f557600080fd5b506102fe61079d565b005b34801561030c57600080fd5b506103156107b1565b60405161032291906122bd565b60405180910390f35b34801561033757600080fd5b506103406107db565b60405161034d91906121f7565b60405180910390f35b34801561036257600080fd5b5061037d6004803603810190610378919061224f565b61086d565b60405161038c939291906123ee565b60405180910390f35b3480156103a157600080fd5b506103bc60048036038101906103b7919061245f565b6109a7565b005b3480156103ca57600080fd5b506103e560048036038101906103e091906125d4565b6109bd565b005b3480156103f357600080fd5b5061040e60048036038101906104099190612744565b610ab8565b005b34801561041c57600080fd5b506104376004803603810190610432919061224f565b610add565b60405161044491906121f7565b60405180910390f35b34801561045957600080fd5b50610474600480360381019061046f91906127c7565b610aef565b604051610481919061214c565b60405180910390f35b6104a4600480360381019061049f919061224f565b610b83565b005b3480156104b257600080fd5b506104cd60048036038101906104c891906123c1565b610caa565b005b60006104da82610d30565b9050919050565b6060600080546104f090612836565b80601f016020809104026020016040519081016040528092919081815260200182805461051c90612836565b80156105695780601f1061053e57610100808354040283529160200191610569565b820191906000526020600020905b81548152906001019060200180831161054c57829003601f168201915b5050505050905090565b600061057e82610d91565b5061058882610e19565b9050919050565b6105a1828261059c610e56565b610e5e565b5050565b6000600854905090565b600073ffffffffffffffffffffffffffffffffffffffff168273ffffffffffffffffffffffffffffffffffffffff16036106215760006040517f64a0ae9200000000000000000000000000000000000000000000000000000000815260040161061891906122bd565b60405180910390fd5b60006106358383610630610e56565b610e70565b90508373ffffffffffffffffffffffffffffffffffffffff168173ffffffffffffffffffffffffffffffffffffffff16146106ab578382826040517f64283d7b0000000000000000000000000000000000000000000000000000000081526004016106a293929190612867565b60405180910390fd5b50505050565b6106cc83838360405180602001604052806000815250610ab8565b505050565b60006106dc82610d91565b9050919050565b60008073ffffffffffffffffffffffffffffffffffffffff168273ffffffffffffffffffffffffffffffffffffffff16036107565760006040517f89c62b6400000000000000000000000000000000000000000000000000000000815260040161074d91906122bd565b60405180910390fd5b600360008373ffffffffffffffffffffffffffffffffffffffff1673ffffffffffffffffffffffffffffffffffffffff168152602001908152602001600020549050919050565b6107a5610e86565b6107af6000610f0d565b565b6000600760009054906101000a900473ffffffffffffffffffffffffffffffffffffffff16905090565b6060600180546107ea90612836565b80601f016020809104026020016040519081016040528092919081815260200182805461081690612836565b80156108635780601f1061083857610100808354040283529160200191610863565b820191906000526020600020905b81548152906001019060200180831161084657829003601f168201915b5050505050905090565b600960205280600052604060002060009150905080600001805461089090612836565b80601f01602080910402602001604051908101604052809291908181526020018280546108bc90612836565b80156109095780601f106108de57610100808354040283529160200191610909565b820191906000526020600020905b8154815290600101906020018083116108ec57829003601f168201915b50505050509080600101805461091e90612836565b80601f016020809104026020016040519081016040528092919081815260200182805461094a90612836565b80156109975780601f1061096c57610100808354040283529160200191610997565b820191906000526020600020905b81548152906001019060200180831161097a57829003601f168201915b5050505050908060020154905083565b6109b96109b2610e56565b8383610fd3565b5050565b6109c5610e86565b600860008154809291906109d8906128cd565b9190505550600060085490506109ee8682611142565b6109f88186611160565b604051806060016040528085815260200184815260200183815250600960008381526020019081526020016000206000820151816000019081610a3b9190612ac1565b506020820151816001019081610a519190612ac1565b50604082015181600201559050508573ffffffffffffffffffffffffffffffffffffffff16817fd6c48b574df6680376a05987a6e1da96624385d817a736890b04a6c65db1b49f8685604051610aa8929190612b93565b60405180910390a3505050505050565b610ac38484846105af565b610ad7610ace610e56565b858585856111bc565b50505050565b6060610ae88261136d565b9050919050565b6000600560008473ffffffffffffffffffffffffffffffffffffffff1673ffffffffffffffffffffffffffffffffffffffff16815260200190815260200160002060008373ffffffffffffffffffffffffffffffffffffffff1673ffffffffffffffffffffffffffffffffffffffff16815260200190815260200160002060009054906101000a900460ff16905092915050565b6000600960008381526020019081526020016000206002015490506000610ba9836106d1565b9050813414610bed576040517f08c379a0000000000000000000000000000000000000000000000000000000008152600401610be490612c35565b60405180910390fd5b610bf8813385611480565b60008173ffffffffffffffffffffffffffffffffffffffff1634604051610c1e90612c86565b60006040518083038185875af1925050503d8060008114610c5b576040519150601f19603f3d011682016040523d82523d6000602084013e610c60565b606091505b5050905080610ca4576040517f08c379a0000000000000000000000000000000000000000000000000000000008152600401610c9b90612ce7565b60405180910390fd5b50505050565b610cb2610e86565b600073ffffffffffffffffffffffffffffffffffffffff168173ffffffffffffffffffffffffffffffffffffffff1603610d245760006040517f1e4fbdf7000000000000000000000000000000000000000000000000000000008152600401610d1b91906122bd565b60405180910390fd5b610d2d81610f0d565b50565b6000634906490660e01b7bffffffffffffffffffffffffffffffffffffffffffffffffffffffff1916827bffffffffffffffffffffffffffffffffffffffffffffffffffffffff19161480610d8a5750610d89826115ed565b5b9050919050565b600080610d9d836116cf565b9050600073ffffffffffffffffffffffffffffffffffffffff168173ffffffffffffffffffffffffffffffffffffffff1603610e1057826040517f7e273289000000000000000000000000000000000000000000000000000000008152600401610e079190612353565b60405180910390fd5b80915050919050565b60006004600083815260200190815260200160002060009054906101000a900473ffffffffffffffffffffffffffffffffffffffff169050919050565b600033905090565b610e6b838383600161170c565b505050565b6000610e7d8484846118d1565b90509392505050565b610e8e610e56565b73ffffffffffffffffffffffffffffffffffffffff16610eac6107b1565b73ffffffffffffffffffffffffffffffffffffffff1614610f0b57610ecf610e56565b6040517f118cdaa7000000000000000000000000000000000000000000000000000000008152600401610f0291906122bd565b60405180910390fd5b565b6000600760009054906101000a900473ffffffffffffffffffffffffffffffffffffffff16905081600760006101000a81548173ffffffffffffffffffffffffffffffffffffffff021916908373ffffffffffffffffffffffffffffffffffffffff1602179055508173ffffffffffffffffffffffffffffffffffffffff168173ffffffffffffffffffffffffffffffffffffffff167f8be0079c531659141344cd1fd0a4f28419497f9722a3daafe3b4186f6b6457e060405160405180910390a35050565b600073ffffffffffffffffffffffffffffffffffffffff168273ffffffffffffffffffffffffffffffffffffffff160361104457816040517f5b08ba1800000000000000000000000000000000000000000000000000000000815260040161103b91906122bd565b60405180910390fd5b80600560008573ffffffffffffffffffffffffffffffffffffffff1673ffffffffffffffffffffffffffffffffffffffff16815260200190815260200160002060008473ffffffffffffffffffffffffffffffffffffffff1673ffffffffffffffffffffffffffffffffffffffff16815260200190815260200160002060006101000a81548160ff0219169083151502179055508173ffffffffffffffffffffffffffffffffffffffff168373ffffffffffffffffffffffffffffffffffffffff167f17307eab39ab6107e8899845ad3d59bd9653f200f220920489ca2b5937696c3183604051611135919061214c565b60405180910390a3505050565b61115c828260405180602001604052806000815250611aeb565b5050565b806006600084815260200190815260200160002090816111809190612ac1565b507ff8e1a15aba9398e019f0b49df1a4fde98ee17ae345cb5f6b5e2c27f5033e8ce7826040516111b09190612353565b60405180910390a15050565b60008373ffffffffffffffffffffffffffffffffffffffff163b1115611366578273ffffffffffffffffffffffffffffffffffffffff1663150b7a02868685856040518563ffffffff1660e01b815260040161121b9493929190612d5c565b6020604051808303816000875af192505050801561125757506040513d601f19601f820116820180604052508101906112549190612dbd565b60015b6112db573d8060008114611287576040519150601f19603f3d011682016040523d82523d6000602084013e61128c565b606091505b5060008151036112d357836040517f64a0ae920000000000000000000000000000000000000000000000000000000081526004016112ca91906122bd565b60405180910390fd5b805160208201fd5b63150b7a0260e01b7bffffffffffffffffffffffffffffffffffffffffffffffffffffffff1916817bffffffffffffffffffffffffffffffffffffffffffffffffffffffff19161461136457836040517f64a0ae9200000000000000000000000000000000000000000000000000000000815260040161135b91906122bd565b60405180910390fd5b505b5050505050565b606061137882610d91565b50600060066000848152602001908152602001600020805461139990612836565b80601f01602080910402602001604051908101604052809291908181526020018280546113c590612836565b80156114125780601f106113e757610100808354040283529160200191611412565b820191906000526020600020905b8154815290600101906020018083116113f557829003601f168201915b505050505090506000611423611b0f565b9050600081510361143857819250505061147b565b60008251111561146d578082604051602001611455929190612e26565b6040516020818303038152906040529250505061147b565b61147684611b26565b925050505b919050565b600073ffffffffffffffffffffffffffffffffffffffff168273ffffffffffffffffffffffffffffffffffffffff16036114f25760006040517f64a0ae920000000000000000000000000000000000000000000000000000000081526004016114e991906122bd565b60405180910390fd5b600061150083836000610e70565b9050600073ffffffffffffffffffffffffffffffffffffffff168173ffffffffffffffffffffffffffffffffffffffff160361157357816040517f7e27328900000000000000000000000000000000000000000000000000000000815260040161156a9190612353565b60405180910390fd5b8373ffffffffffffffffffffffffffffffffffffffff168173ffffffffffffffffffffffffffffffffffffffff16146115e7578382826040517f64283d7b0000000000000000000000000000000000000000000000000000000081526004016115de93929190612867565b60405180910390fd5b50505050565b60007f80ac58cd000000000000000000000000000000000000000000000000000000007bffffffffffffffffffffffffffffffffffffffffffffffffffffffff1916827bffffffffffffffffffffffffffffffffffffffffffffffffffffffff191614806116b857507f5b5e139f000000000000000000000000000000000000000000000000000000007bffffffffffffffffffffffffffffffffffffffffffffffffffffffff1916827bffffffffffffffffffffffffffffffffffffffffffffffffffffffff1916145b806116c857506116c782611b8f565b5b9050919050565b60006002600083815260200190815260200160002060009054906101000a900473ffffffffffffffffffffffffffffffffffffffff169050919050565b80806117455750600073ffffffffffffffffffffffffffffffffffffffff168273ffffffffffffffffffffffffffffffffffffffff1614155b1561187957600061175584610d91565b9050600073ffffffffffffffffffffffffffffffffffffffff168373ffffffffffffffffffffffffffffffffffffffff16141580156117c057508273ffffffffffffffffffffffffffffffffffffffff168173ffffffffffffffffffffffffffffffffffffffff1614155b80156117d357506117d18184610aef565b155b1561181557826040517fa9fbf51f00000000000000000000000000000000000000000000000000000000815260040161180c91906122bd565b60405180910390fd5b811561187757838573ffffffffffffffffffffffffffffffffffffffff168273ffffffffffffffffffffffffffffffffffffffff167f8c5be1e5ebec7d5bd14f71427d1e84f3dd0314c0f7b2291e5b200ac8c7c3b92560405160405180910390a45b505b836004600085815260200190815260200160002060006101000a81548173ffffffffffffffffffffffffffffffffffffffff021916908373ffffffffffffffffffffffffffffffffffffffff16021790555050505050565b6000806118dd846116cf565b9050600073ffffffffffffffffffffffffffffffffffffffff168373ffffffffffffffffffffffffffffffffffffffff161461191f5761191e818486611bf9565b5b600073ffffffffffffffffffffffffffffffffffffffff168173ffffffffffffffffffffffffffffffffffffffff16146119b05761196160008560008061170c565b6001600360008373ffffffffffffffffffffffffffffffffffffffff1673ffffffffffffffffffffffffffffffffffffffff168152602001908152602001600020600082825403925050819055505b600073ffffffffffffffffffffffffffffffffffffffff168573ffffffffffffffffffffffffffffffffffffffff1614611a33576001600360008773ffffffffffffffffffffffffffffffffffffffff1673ffffffffffffffffffffffffffffffffffffffff168152602001908152602001600020600082825401925050819055505b846002600086815260200190815260200160002060006101000a81548173ffffffffffffffffffffffffffffffffffffffff021916908373ffffffffffffffffffffffffffffffffffffffff160217905550838573ffffffffffffffffffffffffffffffffffffffff168273ffffffffffffffffffffffffffffffffffffffff167fddf252ad1be2c89b69c2b068fc378daa952ba7f163c4a11628f55a4df523b3ef60405160405180910390a4809150509392505050565b611af58383611cbd565b611b0a611b00610e56565b60008585856111bc565b505050565b606060405180602001604052806000815250905090565b6060611b3182610d91565b506000611b3c611b0f565b90506000815111611b5c5760405180602001604052806000815250611b87565b80611b6684611db6565b604051602001611b77929190612e26565b6040516020818303038152906040525b915050919050565b60007f01ffc9a7000000000000000000000000000000000000000000000000000000007bffffffffffffffffffffffffffffffffffffffffffffffffffffffff1916827bffffffffffffffffffffffffffffffffffffffffffffffffffffffff1916149050919050565b611c04838383611e84565b611cb857600073ffffffffffffffffffffffffffffffffffffffff168373ffffffffffffffffffffffffffffffffffffffff1603611c7957806040517f7e273289000000000000000000000000000000000000000000000000000000008152600401611c709190612353565b60405180910390fd5b81816040517f177e802f000000000000000000000000000000000000000000000000000000008152600401611caf929190612e4a565b60405180910390fd5b505050565b600073ffffffffffffffffffffffffffffffffffffffff168273ffffffffffffffffffffffffffffffffffffffff1603611d2f5760006040517f64a0ae92000000000000000000000000000000000000000000000000000000008152600401611d2691906122bd565b60405180910390fd5b6000611d3d83836000610e70565b9050600073ffffffffffffffffffffffffffffffffffffffff168173ffffffffffffffffffffffffffffffffffffffff1614611db15760006040517f73c6ac6e000000000000000000000000000000000000000000000000000000008152600401611da891906122bd565b60405180910390fd5b505050565b606060006001611dc584611f45565b01905060008167ffffffffffffffff811115611de457611de36124a9565b5b6040519080825280601f01601f191660200182016040528015611e165781602001600182028036833780820191505090505b509050600082602083010190505b600115611e79578080600190039150507f3031323334353637383961626364656600000000000000000000000000000000600a86061a8153600a8581611e6d57611e6c612e73565b5b04945060008503611e24575b819350505050919050565b60008073ffffffffffffffffffffffffffffffffffffffff168373ffffffffffffffffffffffffffffffffffffffff1614158015611f3c57508273ffffffffffffffffffffffffffffffffffffffff168473ffffffffffffffffffffffffffffffffffffffff161480611efd5750611efc8484610aef565b5b80611f3b57508273ffffffffffffffffffffffffffffffffffffffff16611f2383610e19565b73ffffffffffffffffffffffffffffffffffffffff16145b5b90509392505050565b600080600090507a184f03e93ff9f4daa797ed6e38ed64bf6a1f0100000000000000008310611fa3577a184f03e93ff9f4daa797ed6e38ed64bf6a1f0100000000000000008381611f9957611f98612e73565b5b0492506040810190505b6d04ee2d6d415b85acef81000000008310611fe0576d04ee2d6d415b85acef81000000008381611fd657611fd5612e73565b5b0492506020810190505b662386f26fc10000831061200f57662386f26fc10000838161200557612004612e73565b5b0492506010810190505b6305f5e1008310612038576305f5e100838161202e5761202d612e73565b5b0492506008810190505b612710831061205d57612710838161205357612052612e73565b5b0492506004810190505b60648310612080576064838161207657612075612e73565b5b0492506002810190505b600a831061208f576001810190505b80915050919050565b6000604051905090565b600080fd5b600080fd5b60007fffffffff0000000000000000000000000000000000000000000000000000000082169050919050565b6120e1816120ac565b81146120ec57600080fd5b50565b6000813590506120fe816120d8565b92915050565b60006020828403121561211a576121196120a2565b5b6000612128848285016120ef565b91505092915050565b60008115159050919050565b61214681612131565b82525050565b6000602082019050612161600083018461213d565b92915050565b600081519050919050565b600082825260208201905092915050565b60005b838110156121a1578082015181840152602081019050612186565b60008484015250505050565b6000601f19601f8301169050919050565b60006121c982612167565b6121d38185612172565b93506121e3818560208601612183565b6121ec816121ad565b840191505092915050565b6000602082019050818103600083015261221181846121be565b905092915050565b6000819050919050565b61222c81612219565b811461223757600080fd5b50565b60008135905061224981612223565b92915050565b600060208284031215612265576122646120a2565b5b60006122738482850161223a565b91505092915050565b600073ffffffffffffffffffffffffffffffffffffffff82169050919050565b60006122a78261227c565b9050919050565b6122b78161229c565b82525050565b60006020820190506122d260008301846122ae565b92915050565b6122e18161229c565b81146122ec57600080fd5b50565b6000813590506122fe816122d8565b92915050565b6000806040838503121561231b5761231a6120a2565b5b6000612329858286016122ef565b925050602061233a8582860161223a565b9150509250929050565b61234d81612219565b82525050565b60006020820190506123686000830184612344565b92915050565b600080600060608486031215612387576123866120a2565b5b6000612395868287016122ef565b93505060206123a6868287016122ef565b92505060406123b78682870161223a565b9150509250925092565b6000602082840312156123d7576123d66120a2565b5b60006123e5848285016122ef565b91505092915050565b6000606082019050818103600083015261240881866121be565b9050818103602083015261241c81856121be565b905061242b6040830184612344565b949350505050565b61243c81612131565b811461244757600080fd5b50565b60008135905061245981612433565b92915050565b60008060408385031215612476576124756120a2565b5b6000612484858286016122ef565b92505060206124958582860161244a565b9150509250929050565b600080fd5b600080fd5b7f4e487b7100000000000000000000000000000000000000000000000000000000600052604160045260246000fd5b6124e1826121ad565b810181811067ffffffffffffffff82111715612500576124ff6124a9565b5b80604052505050565b6000612513612098565b905061251f82826124d8565b919050565b600067ffffffffffffffff82111561253f5761253e6124a9565b5b612548826121ad565b9050602081019050919050565b82818337600083830152505050565b600061257761257284612524565b612509565b905082815260208101848484011115612593576125926124a4565b5b61259e848285612555565b509392505050565b600082601f8301126125bb576125ba61249f565b5b81356125cb848260208601612564565b91505092915050565b600080600080600060a086880312156125f0576125ef6120a2565b5b60006125fe888289016122ef565b955050602086013567ffffffffffffffff81111561261f5761261e6120a7565b5b61262b888289016125a6565b945050604086013567ffffffffffffffff81111561264c5761264b6120a7565b5b612658888289016125a6565b935050606086013567ffffffffffffffff811115612679576126786120a7565b5b612685888289016125a6565b92505060806126968882890161223a565b9150509295509295909350565b600067ffffffffffffffff8211156126be576126bd6124a9565b5b6126c7826121ad565b9050602081019050919050565b60006126e76126e2846126a3565b612509565b905082815260208101848484011115612703576127026124a4565b5b61270e848285612555565b509392505050565b600082601f83011261272b5761272a61249f565b5b813561273b8482602086016126d4565b91505092915050565b6000806000806080858703121561275e5761275d6120a2565b5b600061276c878288016122ef565b945050602061277d878288016122ef565b935050604061278e8782880161223a565b925050606085013567ffffffffffffffff8111156127af576127ae6120a7565b5b6127bb87828801612716565b91505092959194509250565b600080604083850312156127de576127dd6120a2565b5b60006127ec858286016122ef565b92505060206127fd858286016122ef565b9150509250929050565b7f4e487b7100000000000000000000000000000000000000000000000000000000600052602260045260246000fd5b6000600282049050600182168061284e57607f821691505b60208210810361286157612860612807565b5b50919050565b600060608201905061287c60008301866122ae565b6128896020830185612344565b61289660408301846122ae565b949350505050565b7f4e487b7100000000000000000000000000000000000000000000000000000000600052601160045260246000fd5b60006128d882612219565b91507fffffffffffffffffffffffffffffffffffffffffffffffffffffffffffffffff820361290a5761290961289e565b5b600182019050919050565b60008190508160005260206000209050919050565b60006020601f8301049050919050565b600082821b905092915050565b6000600883026129777fffffffffffffffffffffffffffffffffffffffffffffffffffffffffffffffff8261293a565b612981868361293a565b95508019841693508086168417925050509392505050565b6000819050919050565b60006129be6129b96129b484612219565b612999565b612219565b9050919050565b6000819050919050565b6129d8836129a3565b6129ec6129e4826129c5565b848454612947565b825550505050565b600090565b612a016129f4565b612a0c8184846129cf565b505050565b5b81811015612a3057612a256000826129f9565b600181019050612a12565b5050565b601f821115612a7557612a4681612915565b612a4f8461292a565b81016020851015612a5e578190505b612a72612a6a8561292a565b830182612a11565b50505b505050565b600082821c905092915050565b6000612a9860001984600802612a7a565b1980831691505092915050565b6000612ab18383612a87565b9150826002028217905092915050565b612aca82612167565b67ffffffffffffffff811115612ae357612ae26124a9565b5b612aed8254612836565b612af8828285612a34565b600060209050601f831160018114612b2b5760008415612b19578287015190505b612b238582612aa5565b865550612b8b565b601f198416612b3986612915565b60005b82811015612b6157848901518255600182019150602085019450602081019050612b3c565b86831015612b7e5784890151612b7a601f891682612a87565b8355505b6001600288020188555050505b505050505050565b60006040820190508181036000830152612bad81856121be565b9050612bbc6020830184612344565b9392505050565b7f506c65617365207375626d6974207468652061736b696e67207072696365206960008201527f6e206f7264657220746f20636f6d706c65746520746865207075726368617365602082015250565b6000612c1f604083612172565b9150612c2a82612bc3565b604082019050919050565b60006020820190508181036000830152612c4e81612c12565b9050919050565b600081905092915050565b50565b6000612c70600083612c55565b9150612c7b82612c60565b600082019050919050565b6000612c9182612c63565b9150819050919050565b7f5061796d656e74206661696c6564000000000000000000000000000000000000600082015250565b6000612cd1600e83612172565b9150612cdc82612c9b565b602082019050919050565b60006020820190508181036000830152612d0081612cc4565b9050919050565b600081519050919050565b600082825260208201905092915050565b6000612d2e82612d07565b612d388185612d12565b9350612d48818560208601612183565b612d51816121ad565b840191505092915050565b6000608082019050612d7160008301876122ae565b612d7e60208301866122ae565b612d8b6040830185612344565b8181036060830152612d9d8184612d23565b905095945050505050565b600081519050612db7816120d8565b92915050565b600060208284031215612dd357612dd26120a2565b5b6000612de184828501612da8565b91505092915050565b600081905092915050565b6000612e0082612167565b612e0a8185612dea565b9350612e1a818560208601612183565b80840191505092915050565b6000612e328285612df5565b9150612e3e8284612df5565b91508190509392505050565b6000604082019050612e5f60008301856122ae565b612e6c6020830184612344565b9392505050565b7f4e487b7100000000000000000000000000000000000000000000000000000000600052601260045260246000fdfea26469706673582212202f3740cdef029bf706f9265dc2be0a66159fc5f88fa69aa626312b60ed45dc1c64736f6c63430008140033",
  "linkReferences": {},
  "deployedLinkReferences": {}
}