{
  "_format": "hh-sol-artifact-1",
  "contractName": "UserDAT",
  "sourceName": "contracts/UserDAT.sol",
  "abi": [
    {
      "inputs": [
        {
          "internalType": "address",
          "name": "initialOwner",
          "type": "address"
        }
      ],
      "stateMutability": "nonpayable",
      "type": "constructor"
    },
    {
      "inputs": [
        {
          "internalType": "address",
          "name": "sender",
          "type": "address"
        },
        {
          "internalType": "uint256",
          "name": "tokenId",
          "type": "uint256"
        },
        {
          "internalType": "address",
          "name": "owner",
          "type": "address"
        }
      ],
      "name": "ERC721IncorrectOwner",
      "type": "error"
    },
    {
      "inputs": [
        {
          "internalType": "address",
          "name": "operator",
          "type": "address"
        },
        {
          "internalType": "uint256",
          "name": "tokenId",
          "type": "uint256"
        }
      ],
      "name": "ERC721InsufficientApproval",
      "type": "error"
    },
    {
      "inputs": [
        {
          "internalType": "address",
          "name": "approver",
          "type": "address"
        }
      ],
      "name": "ERC721InvalidApprover",
      "type": "error"
    },
    {
      "inputs": [
        {
          "internalType": "address",
          "name": "operator",
          "type": "address"
        }
      ],
      "name": "ERC721InvalidOperator",
      "type": "error"
    },
    {
      "inputs": [
        {
          "internalType": "address",
          "name": "owner",
          "type": "address"
        }
      ],
      "name": "ERC721InvalidOwner",
      "type": "error"
    },
    {
      "inputs": [
        {
          "internalType": "address",
          "name": "receiver",
          "type": "address"
        }
      ],
      "name": "ERC721InvalidReceiver",
      "type": "error"
    },
    {
      "inputs": [
        {
          "internalType": "address",
          "name": "sender",
          "type": "address"
        }
      ],
      "name": "ERC721InvalidSender",
      "type": "error"
    },
    {
      "inputs": [
        {
          "internalType": "uint256",
          "name": "tokenId",
          "type": "uint256"
        }
      ],
      "name": "ERC721NonexistentToken",
      "type": "error"
    },
    {
      "inputs": [
        {
          "internalType": "address",
          "name": "owner",
          "type": "address"
        }
      ],
      "name": "OwnableInvalidOwner",
      "type": "error"
    },
    {
      "inputs": [
        {
          "internalType": "address",
          "name": "account",
          "type": "address"
        }
      ],
      "name": "OwnableUnauthorizedAccount",
      "type": "error"
    },
    {
      "anonymous": false,
      "inputs": [
        {
          "indexed": true,
          "internalType": "address",
          "name": "owner",
          "type": "address"
        },
        {
          "indexed": true,
          "internalType": "address",
          "name": "approved",
          "type": "address"
        },
        {
          "indexed": true,
          "internalType": "uint256",
          "name": "tokenId",
          "type": "uint256"
        }
      ],
      "name": "Approval",
      "type": "event"
    },
    {
      "anonymous": false,
      "inputs": [
        {
          "indexed": true,
          "internalType": "address",
          "name": "owner",
          "type": "address"
        },
        {
          "indexed": true,
          "internalType": "address",
          "name": "operator",
          "type": "address"
        },
        {
          "indexed": false,
          "internalType": "bool",
          "name": "approved",
          "type": "bool"
        }
      ],
      "name": "ApprovalForAll",
      "type": "event"
    },
    {
      "anonymous": false,
      "inputs": [
        {
          "indexed": false,
          "internalType": "uint256",
          "name": "_fromTokenId",
          "type": "uint256"
        },
        {
          "indexed": false,
          "internalType": "uint256",
          "name": "_toTokenId",
          "type": "uint256"
        }
      ],
      "name": "BatchMetadataUpdate",
      "type": "event"
    },
    {
      "anonymous": false,
      "inputs": [
        {
          "indexed": true,
          "internalType": "uint256",
          "name": "tokenId",
          "type": "uint256"
        },
        {
          "indexed": true,
          "internalType": "address",
          "name": "owner",
          "type": "address"
        },
        {
          "indexed": false,
          "internalType": "string",
          "name": "name",
          "type": "string"
        },
        {
          "indexed": false,
          "internalType": "uint256",
          "name": "price",
          "type": "uint256"
        }
      ],
      "name": "DATMinted",
      "type": "event"
    },
    {
      "anonymous": false,
      "inputs": [
        {
          "indexed": false,
          "internalType": "uint256",
          "name": "_tokenId",
          "type": "uint256"
        }
      ],
      "name": "MetadataUpdate",
      "type": "event"
    },
    {
      "anonymous": false,
      "inputs": [
        {
          "indexed": true,
          "internalType": "address",
          "name": "previousOwner",
          "type": "address"
        },
        {
          "indexed": true,
          "internalType": "address",
          "name": "newOwner",
          "type": "address"
        }
      ],
      "name": "OwnershipTransferred",
      "type": "event"
    },
    {
      "anonymous": false,
      "inputs": [
        {
          "indexed": true,
          "internalType": "address",
          "name": "from",
          "type": "address"
        },
        {
          "indexed": true,
          "internalType": "address",
          "name": "to",
          "type": "address"
        },
        {
          "indexed": true,
          "internalType": "uint256",
          "name": "tokenId",
          "type": "uint256"
        }
      ],
      "name": "Transfer",
      "type": "event"
    },
    {
      "inputs": [
        {
          "internalType": "address",
          "name": "to",
          "type": "address"
        },
        {
          "internalType": "uint256",
          "name": "tokenId",
          "type": "uint256"
        }
      ],
      "name": "approve",
      "outputs": [],
      "stateMutability": "nonpayable",
      "type": "function"
    },
    {
      "inputs": [
        {
          "internalType": "address",
          "name": "owner",
          "type": "address"
        }
      ],
      "name": "balanceOf",
      "outputs": [
        {
          "internalType": "uint256",
          "name": "",
          "type": "uint256"
        }
      ],
      "stateMutability": "view",
      "type": "function"
    },
    {
      "inputs": [
        {
          "internalType": "uint256",
          "name": "",
          "type": "uint256"
        }
      ],
      "name": "datMetadata",
      "outputs": [
        {
          "internalType": "string",
          "name": "name",
          "type": "string"
        },
        {
          "internalType": "string",
          "name": "description",
          "type": "string"
        },
        {
          "internalType": "uint256",
          "name": "price",
          "type": "uint256"
        }
      ],
      "stateMutability": "view",
      "type": "function"
    },
    {
      "inputs": [
        {
          "internalType": "uint256",
          "name": "tokenId",
          "type": "uint256"
        }
      ],
      "name": "getApproved",
      "outputs": [
        {
          "internalType": "address",
          "name": "",
          "type": "address"
        }
      ],
      "stateMutability": "view",
      "type": "function"
    },
    {
      "inputs": [
        {
          "internalType": "address",
          "name": "owner",
          "type": "address"
        },
        {
          "internalType": "address",
          "name": "operator",
          "type": "address"
        }
      ],
      "name": "isApprovedForAll",
      "outputs": [
        {
          "internalType": "bool",
          "name": "",
          "type": "bool"
        }
      ],
      "stateMutability": "view",
      "type": "function"
    },
    {
      "inputs": [],
      "name": "name",
      "outputs": [
        {
          "internalType": "string",
          "name": "",
          "type": "string"
        }
      ],
      "stateMutability": "view",
      "type": "function"
    },
    {
      "inputs": [],
      "name": "owner",
      "outputs": [
        {
          "internalType": "address",
          "name": "",
          "type": "address"
        }
      ],
      "stateMutability": "view",
      "type": "function"
    },
    {
      "inputs": [
        {
          "internalType": "uint256",
          "name": "tokenId",
          "type": "uint256"
        }
      ],
      "name": "ownerOf",
      "outputs": [
        {
          "internalType": "address",
          "name": "",
          "type": "address"
        }
      ],
      "stateMutability": "view",
      "type": "function"
    },
    {
      "inputs": [
        {
          "internalType": "uint256",
          "name": "tokenId",
          "type": "uint256"
        }
      ],
      "name": "purchase",
      "outputs": [],
      "stateMutability": "payable",
      "type": "function"
    },
    {
      "inputs": [],
      "name": "renounceOwnership",
      "outputs": [],
      "stateMutability": "nonpayable",
      "type": "function"
    },
    {
      "inputs": [
        {
          "internalType": "address",
          "name": "to",
          "type": "address"
        },
        {
          "internalType": "string",
          "name": "uri",
          "type": "string"
        },
        {
          "internalType": "string",
          "name": "name",
          "type": "string"
        },
        {
          "internalType": "string",
          "name": "description",
          "type": "string"
        },
        {
          "internalType": "uint256",
          "name": "price",
          "type": "uint256"
        }
      ],
      "name": "safeMint",
      "outputs": [],
      "stateMutability": "nonpayable",
      "type": "function"
    },
    {
      "inputs": [
        {
          "internalType": "address",
          "name": "from",
          "type": "address"
        },
        {
          "internalType": "address",
          "name": "to",
          "type": "address"
        },
        {
          "internalType": "uint256",
          "name": "tokenId",
          "type": "uint256"
        }
      ],
      "name": "safeTransferFrom",
      "outputs": [],
      "stateMutability": "nonpayable",
      "type": "function"
    },
    {
      "inputs": [
        {
          "internalType": "address",
          "name": "from",
          "type": "address"
        },
        {
          "internalType": "address",
          "name": "to",
          "type": "address"
        },
        {
          "internalType": "uint256",
          "name": "tokenId",
          "type": "uint256"
        },
        {
          "internalType": "bytes",
          "name": "data",
          "type": "bytes"
        }
      ],
      "name": "safeTransferFrom",
      "outputs": [],
      "stateMutability": "nonpayable",
      "type": "function"
    },
    {
      "inputs": [
        {
          "internalType": "address",
          "name": "operator",
          "type": "address"
        },
        {
          "internalType": "bool",
          "name": "approved",
          "type": "bool"
        }
      ],
      "name": "setApprovalForAll",
      "outputs": [],
      "stateMutability": "nonpayable",
      "type": "function"
    },
    {
      "inputs": [
        {
          "internalType": "bytes4",
          "name": "interfaceId",
          "type": "bytes4"
        }
      ],
      "name": "supportsInterface",
      "outputs": [
        {
          "internalType": "bool",
          "name": "",
          "type": "bool"
        }
      ],
      "stateMutability": "view",
      "type": "function"
    },
    {
      "inputs": [],
      "name": "symbol",
      "outputs": [
        {
          "internalType": "string",
          "name": "",
          "type": "string"
        }
      ],
      "stateMutability": "view",
      "type": "function"
    },
    {
      "inputs": [
        {
          "internalType": "uint256",
          "name": "tokenId",
          "type": "uint256"
        }
      ],
      "name": "tokenURI",
      "outputs": [
        {
          "internalType": "string",
          "name": "",
          "type": "string"
        }
      ],
      "stateMutability": "view",
      "type": "function"
    },
    {
      "inputs": [],
      "name": "totalSupply",
      "outputs": [
        {
          "internalType": "uint256",
          "name": "",
          "type": "uint256"
        }
      ],
      "stateMutability": "view",
      "type": "function"
    },
    {
      "inputs": [
        {
          "internalType": "address",
          "name": "from",
          "type": "address"
        },
        {
          "internalType": "address",
          "name": "to",
          "type": "address"
        },
        {
          "internalType": "uint256",
          "name": "tokenId",
          "type": "uint256"
        }
      ],
      "name": "transferFrom",
      "outputs": [],
      "stateMutability": "nonpayable",
      "type": "function"
    },
    {
      "inputs": [
        {
          "internalType": "address",
          "name": "newOwner",
          "type": "address"
        }
      ],
      "name": "transferOwnership",
      "outputs": [],
      "stateMutability": "nonpayable",
      "type": "function"
    }
  ],
  "bytecode": "0x60806040523480156200001157600080fd5b506040516200352938038062003529833981810160405281019062000037919062000288565b806040518060400160405280600781526020017f55736572444154000000000000000000000000000000000000000000000000008152506040518060400160405280600481526020017f55444154000000000000000000000000000000000000000000000000000000008152508160009081620000b5919062000534565b508060019081620000c7919062000534565b505050600073ffffffffffffffffffffffffffffffffffffffff168173ffffffffffffffffffffffffffffffffffffffff16036200013f5760006040517f1e4fbdf70000000000000000000000000000000000000000000000000000000081526004016200013691906200062c565b60405180910390fd5b62000150816200015860201b60201c565b505062000649565b6000600760009054906101000a900473ffffffffffffffffffffffffffffffffffffffff16905081600760006101000a81548173ffffffffffffffffffffffffffffffffffffffff021916908373ffffffffffffffffffffffffffffffffffffffff1602179055508173ffffffffffffffffffffffffffffffffffffffff168173ffffffffffffffffffffffffffffffffffffffff167f8be0079c531659141344cd1fd0a4f28419497f9722a3daafe3b4186f6b6457e060405160405180910390a35050565b600080fd5b600073ffffffffffffffffffffffffffffffffffffffff82169050919050565b6000620002508262000223565b9050919050565b620002628162000243565b81146200026e57600080fd5b50565b600081519050620002828162000257565b92915050565b600060208284031215620002a157620002a06200021e565b5b6000620002b18482850162000271565b91505092915050565b600081519050919050565b7f4e487b7100000000000000000000000000000000000000000000000000000000600052604160045260246000fd5b7f4e487b7100000000000000000000000000000000000000000000000000000000600052602260045260246000fd5b600060028204905060018216806200033c57607f821691505b602082108103620003525762000351620002f4565b5b50919050565b60008190508160005260206000209050919050565b60006020601f8301049050919050565b600082821b905092915050565b600060088302620003bc7fffffffffffffffffffffffffffffffffffffffffffffffffffffffffffffffff826200037d565b620003c886836200037d565b95508019841693508086168417925050509392505050565b6000819050919050565b6000819050919050565b6000620004156200040f6200040984620003e0565b620003ea565b620003e0565b9050919050565b6000819050919050565b6200043183620003f4565b6200044962000440826200041c565b8484546200038a565b825550505050565b600090565b6200046062000451565b6200046d81848462000426565b505050565b5b8181101562000495576200048960008262000456565b60018101905062000473565b5050565b601f821115620004e457620004ae8162000358565b620004b9846200036d565b81016020851015620004c9578190505b620004e1620004d8856200036d565b83018262000472565b50505b505050565b600082821c905092915050565b60006200050960001984600802620004e9565b1980831691505092915050565b6000620005248383620004f6565b9150826002028217905092915050565b6200053f82620002ba565b67ffffffffffffffff8111156200055b576200055a620002c5565b5b62000567825462000323565b6200057482828562000499565b600060209050601f831160018114620005ac576000841562000597578287015190505b620005a3858262000516565b86555062000613565b601f198416620005bc8662000358565b60005b82811015620005e657848901518255600182019150602085019450602081019050620005bf565b8683101562000606578489015162000602601f891682620004f6565b8355505b6001600288020188555050505b505050505050565b620006268162000243565b82525050565b60006020820190506200064360008301846200061b565b92915050565b612ed080620006596000396000f3fe60806040526004361061011f5760003560e01c80638da5cb5b116100a0578063b88d4fde11610064578063b88d4fde146103e7578063c87b56dd14610410578063e985e9c51461044d578063efef39a11461048a578063f2fde38b146104a65761011f565b80638da5cb5b1461030057806395d89b411461032b5780639ca3d1c414610356578063a22cb46514610395578063b03ad3b2146103be5761011f565b806323b872dd116100e757806323b872dd1461021d57806342842e0e146102465780636352211e1461026f57806370a08231146102ac578063715018a6146102e95761011f565b806301ffc9a71461012457806306fdde0314610161578063081812fc1461018c578063095ea7b3146101c957806318160ddd146101f2575b600080fd5b34801561013057600080fd5b5061014b600480360381019061014691906120fc565b6104cf565b6040516101589190612144565b60405180910390f35b34801561016d57600080fd5b506101766104e1565b60405161018391906121ef565b60405180910390f35b34801561019857600080fd5b506101b360048036038101906101ae9190612247565b610573565b6040516101c091906122b5565b60405180910390f35b3480156101d557600080fd5b506101f060048036038101906101eb91906122fc565b61058f565b005b3480156101fe57600080fd5b506102076105a5565b604051610214919061234b565b60405180910390f35b34801561022957600080fd5b50610244600480360381019061023f9190612366565b6105af565b005b34801561025257600080fd5b5061026d60048036038101906102689190612366565b6106b1565b005b34801561027b57600080fd5b5061029660048036038101906102919190612247565b6106d1565b6040516102a391906122b5565b60405180910390f35b3480156102b857600080fd5b506102d360048036038101906102ce91906123b9565b6106e3565b6040516102e0919061234b565b60405180910390f35b3480156102f557600080fd5b506102fe61079d565b005b34801561030c57600080fd5b506103156107b1565b60405161032291906122b5565b60405180910390f35b34801561033757600080fd5b506103406107db565b60405161034d91906121ef565b60405180910390f35b34801561036257600080fd5b5061037d60048036038101906103789190612247565b61086d565b60405161038c939291906123e6565b60405180910390f35b3480156103a157600080fd5b506103bc60048036038101906103b79190612457565b6109a7565b005b3480156103ca57600080fd5b506103e560048036038101906103e091906125cc565b6109bd565b005b3480156103f357600080fd5b5061040e6004803603810190610409919061273c565b610ab0565b005b34801561041c57600080fd5b5061043760048036038101906104329190612247565b610ad5565b60405161044491906121ef565b60405180910390f35b34801561045957600080fd5b50610474600480360381019061046f91906127bf565b610ae7565b6040516104819190612144565b60405180910390f35b6104a4600480360381019061049f9190612247565b610b7b565b005b3480156104b257600080fd5b506104cd60048036038101906104c891906123b9565b610ca2565b005b60006104da82610d28565b9050919050565b6060600080546104f09061282e565b80601f016020809104026020016040519081016040528092919081815260200182805461051c9061282e565b80156105695780601f1061053e57610100808354040283529160200191610569565b820191906000526020600020905b81548152906001019060200180831161054c57829003601f168201915b5050505050905090565b600061057e82610d89565b5061058882610e11565b9050919050565b6105a1828261059c610e4e565b610e56565b5050565b6000600854905090565b600073ffffffffffffffffffffffffffffffffffffffff168273ffffffffffffffffffffffffffffffffffffffff16036106215760006040517f64a0ae9200000000000000000000000000000000000000000000000000000000815260040161061891906122b5565b60405180910390fd5b60006106358383610630610e4e565b610e68565b90508373ffffffffffffffffffffffffffffffffffffffff168173ffffffffffffffffffffffffffffffffffffffff16146106ab578382826040517f64283d7b0000000000000000000000000000000000000000000000000000000081526004016106a29392919061285f565b60405180910390fd5b50505050565b6106cc83838360405180602001604052806000815250610ab0565b505050565b60006106dc82610d89565b9050919050565b60008073ffffffffffffffffffffffffffffffffffffffff168273ffffffffffffffffffffffffffffffffffffffff16036107565760006040517f89c62b6400000000000000000000000000000000000000000000000000000000815260040161074d91906122b5565b60405180910390fd5b600360008373ffffffffffffffffffffffffffffffffffffffff1673ffffffffffffffffffffffffffffffffffffffff168152602001908152602001600020549050919050565b6107a5610e7e565b6107af6000610f05565b565b6000600760009054906101000a900473ffffffffffffffffffffffffffffffffffffffff16905090565b6060600180546107ea9061282e565b80601f01602080910402602001604051908101604052809291908181526020018280546108169061282e565b80156108635780601f1061083857610100808354040283529160200191610863565b820191906000526020600020905b81548152906001019060200180831161084657829003601f168201915b5050505050905090565b60096020528060005260406000206000915090508060000180546108909061282e565b80601f01602080910402602001604051908101604052809291908181526020018280546108bc9061282e565b80156109095780601f106108de57610100808354040283529160200191610909565b820191906000526020600020905b8154815290600101906020018083116108ec57829003601f168201915b50505050509080600101805461091e9061282e565b80601f016020809104026020016040519081016040528092919081815260200182805461094a9061282e565b80156109975780601f1061096c57610100808354040283529160200191610997565b820191906000526020600020905b81548152906001019060200180831161097a57829003601f168201915b5050505050908060020154905083565b6109b96109b2610e4e565b8383610fcb565b5050565b600860008154809291906109d0906128c5565b9190505550600060085490506109e6868261113a565b6109f08186611158565b604051806060016040528085815260200184815260200183815250600960008381526020019081526020016000206000820151816000019081610a339190612ab9565b506020820151816001019081610a499190612ab9565b50604082015181600201559050508573ffffffffffffffffffffffffffffffffffffffff16817fd6c48b574df6680376a05987a6e1da96624385d817a736890b04a6c65db1b49f8685604051610aa0929190612b8b565b60405180910390a3505050505050565b610abb8484846105af565b610acf610ac6610e4e565b858585856111b4565b50505050565b6060610ae082611365565b9050919050565b6000600560008473ffffffffffffffffffffffffffffffffffffffff1673ffffffffffffffffffffffffffffffffffffffff16815260200190815260200160002060008373ffffffffffffffffffffffffffffffffffffffff1673ffffffffffffffffffffffffffffffffffffffff16815260200190815260200160002060009054906101000a900460ff16905092915050565b6000600960008381526020019081526020016000206002015490506000610ba1836106d1565b9050813414610be5576040517f08c379a0000000000000000000000000000000000000000000000000000000008152600401610bdc90612c2d565b60405180910390fd5b610bf0813385611478565b60008173ffffffffffffffffffffffffffffffffffffffff1634604051610c1690612c7e565b60006040518083038185875af1925050503d8060008114610c53576040519150601f19603f3d011682016040523d82523d6000602084013e610c58565b606091505b5050905080610c9c576040517f08c379a0000000000000000000000000000000000000000000000000000000008152600401610c9390612cdf565b60405180910390fd5b50505050565b610caa610e7e565b600073ffffffffffffffffffffffffffffffffffffffff168173ffffffffffffffffffffffffffffffffffffffff1603610d1c5760006040517f1e4fbdf7000000000000000000000000000000000000000000000000000000008152600401610d1391906122b5565b60405180910390fd5b610d2581610f05565b50565b6000634906490660e01b7bffffffffffffffffffffffffffffffffffffffffffffffffffffffff1916827bffffffffffffffffffffffffffffffffffffffffffffffffffffffff19161480610d825750610d81826115e5565b5b9050919050565b600080610d95836116c7565b9050600073ffffffffffffffffffffffffffffffffffffffff168173ffffffffffffffffffffffffffffffffffffffff1603610e0857826040517f7e273289000000000000000000000000000000000000000000000000000000008152600401610dff919061234b565b60405180910390fd5b80915050919050565b60006004600083815260200190815260200160002060009054906101000a900473ffffffffffffffffffffffffffffffffffffffff169050919050565b600033905090565b610e638383836001611704565b505050565b6000610e758484846118c9565b90509392505050565b610e86610e4e565b73ffffffffffffffffffffffffffffffffffffffff16610ea46107b1565b73ffffffffffffffffffffffffffffffffffffffff1614610f0357610ec7610e4e565b6040517f118cdaa7000000000000000000000000000000000000000000000000000000008152600401610efa91906122b5565b60405180910390fd5b565b6000600760009054906101000a900473ffffffffffffffffffffffffffffffffffffffff16905081600760006101000a81548173ffffffffffffffffffffffffffffffffffffffff021916908373ffffffffffffffffffffffffffffffffffffffff1602179055508173ffffffffffffffffffffffffffffffffffffffff168173ffffffffffffffffffffffffffffffffffffffff167f8be0079c531659141344cd1fd0a4f28419497f9722a3daafe3b4186f6b6457e060405160405180910390a35050565b600073ffffffffffffffffffffffffffffffffffffffff168273ffffffffffffffffffffffffffffffffffffffff160361103c57816040517f5b08ba1800000000000000000000000000000000000000000000000000000000815260040161103391906122b5565b60405180910390fd5b80600560008573ffffffffffffffffffffffffffffffffffffffff1673ffffffffffffffffffffffffffffffffffffffff16815260200190815260200160002060008473ffffffffffffffffffffffffffffffffffffffff1673ffffffffffffffffffffffffffffffffffffffff16815260200190815260200160002060006101000a81548160ff0219169083151502179055508173ffffffffffffffffffffffffffffffffffffffff168373ffffffffffffffffffffffffffffffffffffffff167f17307eab39ab6107e8899845ad3d59bd9653f200f220920489ca2b5937696c318360405161112d9190612144565b60405180910390a3505050565b611154828260405180602001604052806000815250611ae3565b5050565b806006600084815260200190815260200160002090816111789190612ab9565b507ff8e1a15aba9398e019f0b49df1a4fde98ee17ae345cb5f6b5e2c27f5033e8ce7826040516111a8919061234b565b60405180910390a15050565b60008373ffffffffffffffffffffffffffffffffffffffff163b111561135e578273ffffffffffffffffffffffffffffffffffffffff1663150b7a02868685856040518563ffffffff1660e01b81526004016112139493929190612d54565b6020604051808303816000875af192505050801561124f57506040513d601f19601f8201168201806040525081019061124c9190612db5565b60015b6112d3573d806000811461127f576040519150601f19603f3d011682016040523d82523d6000602084013e611284565b606091505b5060008151036112cb57836040517f64a0ae920000000000000000000000000000000000000000000000000000000081526004016112c291906122b5565b60405180910390fd5b805160208201fd5b63150b7a0260e01b7bffffffffffffffffffffffffffffffffffffffffffffffffffffffff1916817bffffffffffffffffffffffffffffffffffffffffffffffffffffffff19161461135c57836040517f64a0ae9200000000000000000000000000000000000000000000000000000000815260040161135391906122b5565b60405180910390fd5b505b5050505050565b606061137082610d89565b5060006006600084815260200190815260200160002080546113919061282e565b80601f01602080910402602001604051908101604052809291908181526020018280546113bd9061282e565b801561140a5780601f106113df5761010080835404028352916020019161140a565b820191906000526020600020905b8154815290600101906020018083116113ed57829003601f168201915b50505050509050600061141b611b07565b90506000815103611430578192505050611473565b60008251111561146557808260405160200161144d929190612e1e565b60405160208183030381529060405292505050611473565b61146e84611b1e565b925050505b919050565b600073ffffffffffffffffffffffffffffffffffffffff168273ffffffffffffffffffffffffffffffffffffffff16036114ea5760006040517f64a0ae920000000000000000000000000000000000000000000000000000000081526004016114e191906122b5565b60405180910390fd5b60006114f883836000610e68565b9050600073ffffffffffffffffffffffffffffffffffffffff168173ffffffffffffffffffffffffffffffffffffffff160361156b57816040517f7e273289000000000000000000000000000000000000000000000000000000008152600401611562919061234b565b60405180910390fd5b8373ffffffffffffffffffffffffffffffffffffffff168173ffffffffffffffffffffffffffffffffffffffff16146115df578382826040517f64283d7b0000000000000000000000000000000000000000000000000000000081526004016115d69392919061285f565b60405180910390fd5b50505050565b60007f80ac58cd000000000000000000000000000000000000000000000000000000007bffffffffffffffffffffffffffffffffffffffffffffffffffffffff1916827bffffffffffffffffffffffffffffffffffffffffffffffffffffffff191614806116b057507f5b5e139f000000000000000000000000000000000000000000000000000000007bffffffffffffffffffffffffffffffffffffffffffffffffffffffff1916827bffffffffffffffffffffffffffffffffffffffffffffffffffffffff1916145b806116c057506116bf82611b87565b5b9050919050565b60006002600083815260200190815260200160002060009054906101000a900473ffffffffffffffffffffffffffffffffffffffff169050919050565b808061173d5750600073ffffffffffffffffffffffffffffffffffffffff168273ffffffffffffffffffffffffffffffffffffffff1614155b1561187157600061174d84610d89565b9050600073ffffffffffffffffffffffffffffffffffffffff168373ffffffffffffffffffffffffffffffffffffffff16141580156117b857508273ffffffffffffffffffffffffffffffffffffffff168173ffffffffffffffffffffffffffffffffffffffff1614155b80156117cb57506117c98184610ae7565b155b1561180d57826040517fa9fbf51f00000000000000000000000000000000000000000000000000000000815260040161180491906122b5565b60405180910390fd5b811561186f57838573ffffffffffffffffffffffffffffffffffffffff168273ffffffffffffffffffffffffffffffffffffffff167f8c5be1e5ebec7d5bd14f71427d1e84f3dd0314c0f7b2291e5b200ac8c7c3b92560405160405180910390a45b505b836004600085815260200190815260200160002060006101000a81548173ffffffffffffffffffffffffffffffffffffffff021916908373ffffffffffffffffffffffffffffffffffffffff16021790555050505050565b6000806118d5846116c7565b9050600073ffffffffffffffffffffffffffffffffffffffff168373ffffffffffffffffffffffffffffffffffffffff161461191757611916818486611bf1565b5b600073ffffffffffffffffffffffffffffffffffffffff168173ffffffffffffffffffffffffffffffffffffffff16146119a857611959600085600080611704565b6001600360008373ffffffffffffffffffffffffffffffffffffffff1673ffffffffffffffffffffffffffffffffffffffff168152602001908152602001600020600082825403925050819055505b600073ffffffffffffffffffffffffffffffffffffffff168573ffffffffffffffffffffffffffffffffffffffff1614611a2b576001600360008773ffffffffffffffffffffffffffffffffffffffff1673ffffffffffffffffffffffffffffffffffffffff168152602001908152602001600020600082825401925050819055505b846002600086815260200190815260200160002060006101000a81548173ffffffffffffffffffffffffffffffffffffffff021916908373ffffffffffffffffffffffffffffffffffffffff160217905550838573ffffffffffffffffffffffffffffffffffffffff168273ffffffffffffffffffffffffffffffffffffffff167fddf252ad1be2c89b69c2b068fc378daa952ba7f163c4a11628f55a4df523b3ef60405160405180910390a4809150509392505050565b611aed8383611cb5565b611b02611af8610e4e565b60008585856111b4565b505050565b606060405180602001604052806000815250905090565b6060611b2982610d89565b506000611b34611b07565b90506000815111611b545760405180602001604052806000815250611b7f565b80611b5e84611dae565b604051602001611b6f929190612e1e565b6040516020818303038152906040525b915050919050565b60007f01ffc9a7000000000000000000000000000000000000000000000000000000007bffffffffffffffffffffffffffffffffffffffffffffffffffffffff1916827bffffffffffffffffffffffffffffffffffffffffffffffffffffffff1916149050919050565b611bfc838383611e7c565b611cb057600073ffffffffffffffffffffffffffffffffffffffff168373ffffffffffffffffffffffffffffffffffffffff1603611c7157806040517f7e273289000000000000000000000000000000000000000000000000000000008152600401611c68919061234b565b60405180910390fd5b81816040517f177e802f000000000000000000000000000000000000000000000000000000008152600401611ca7929190612e42565b60405180910390fd5b505050565b600073ffffffffffffffffffffffffffffffffffffffff168273ffffffffffffffffffffffffffffffffffffffff1603611d275760006040517f64a0ae92000000000000000000000000000000000000000000000000000000008152600401611d1e91906122b5565b60405180910390fd5b6000611d3583836000610e68565b9050600073ffffffffffffffffffffffffffffffffffffffff168173ffffffffffffffffffffffffffffffffffffffff1614611da95760006040517f73c6ac6e000000000000000000000000000000000000000000000000000000008152600401611da091906122b5565b60405180910390fd5b505050565b606060006001611dbd84611f3d565b01905060008167ffffffffffffffff811115611ddc57611ddb6124a1565b5b6040519080825280601f01601f191660200182016040528015611e0e5781602001600182028036833780820191505090505b509050600082602083010190505b600115611e71578080600190039150507f3031323334353637383961626364656600000000000000000000000000000000600a86061a8153600a8581611e6557611e64612e6b565b5b04945060008503611e1c575b819350505050919050565b60008073ffffffffffffffffffffffffffffffffffffffff168373ffffffffffffffffffffffffffffffffffffffff1614158015611f3457508273ffffffffffffffffffffffffffffffffffffffff168473ffffffffffffffffffffffffffffffffffffffff161480611ef55750611ef48484610ae7565b5b80611f3357508273ffffffffffffffffffffffffffffffffffffffff16611f1b83610e11565b73ffffffffffffffffffffffffffffffffffffffff16145b5b90509392505050565b600080600090507a184f03e93ff9f4daa797ed6e38ed64bf6a1f0100000000000000008310611f9b577a184f03e93ff9f4daa797ed6e38ed64bf6a1f0100000000000000008381611f9157611f90612e6b565b5b0492506040810190505b6d04ee2d6d415b85acef81000000008310611fd8576d04ee2d6d415b85acef81000000008381611fce57611fcd612e6b565b5b0492506020810190505b662386f26fc10000831061200757662386f26fc100008381611ffd57611ffc612e6b565b5b0492506010810190505b6305f5e1008310612030576305f5e100838161202657612025612e6b565b5b0492506008810190505b612710831061205557612710838161204b5761204a612e6b565b5b0492506004810190505b60648310612078576064838161206e5761206d612e6b565b5b0492506002810190505b600a8310612087576001810190505b80915050919050565b6000604051905090565b600080fd5b600080fd5b60007fffffffff0000000000000000000000000000000000000000000000000000000082169050919050565b6120d9816120a4565b81146120e457600080fd5b50565b6000813590506120f6816120d0565b92915050565b6000602082840312156121125761211161209a565b5b6000612120848285016120e7565b91505092915050565b60008115159050919050565b61213e81612129565b82525050565b60006020820190506121596000830184612135565b92915050565b600081519050919050565b600082825260208201905092915050565b60005b8381101561219957808201518184015260208101905061217e565b60008484015250505050565b6000601f19601f8301169050919050565b60006121c18261215f565b6121cb818561216a565b93506121db81856020860161217b565b6121e4816121a5565b840191505092915050565b6000602082019050818103600083015261220981846121b6565b905092915050565b6000819050919050565b61222481612211565b811461222f57600080fd5b50565b6000813590506122418161221b565b92915050565b60006020828403121561225d5761225c61209a565b5b600061226b84828501612232565b91505092915050565b600073ffffffffffffffffffffffffffffffffffffffff82169050919050565b600061229f82612274565b9050919050565b6122af81612294565b82525050565b60006020820190506122ca60008301846122a6565b92915050565b6122d981612294565b81146122e457600080fd5b50565b6000813590506122f6816122d0565b92915050565b600080604083850312156123135761231261209a565b5b6000612321858286016122e7565b925050602061233285828601612232565b9150509250929050565b61234581612211565b82525050565b6000602082019050612360600083018461233c565b92915050565b60008060006060848603121561237f5761237e61209a565b5b600061238d868287016122e7565b935050602061239e868287016122e7565b92505060406123af86828701612232565b9150509250925092565b6000602082840312156123cf576123ce61209a565b5b60006123dd848285016122e7565b91505092915050565b6000606082019050818103600083015261240081866121b6565b9050818103602083015261241481856121b6565b9050612423604083018461233c565b949350505050565b61243481612129565b811461243f57600080fd5b50565b6000813590506124518161242b565b92915050565b6000806040838503121561246e5761246d61209a565b5b600061247c858286016122e7565b925050602061248d85828601612442565b9150509250929050565b600080fd5b600080fd5b7f4e487b7100000000000000000000000000000000000000000000000000000000600052604160045260246000fd5b6124d9826121a5565b810181811067ffffffffffffffff821117156124f8576124f76124a1565b5b80604052505050565b600061250b612090565b905061251782826124d0565b919050565b600067ffffffffffffffff821115612537576125366124a1565b5b612540826121a5565b9050602081019050919050565b82818337600083830152505050565b600061256f61256a8461251c565b612501565b90508281526020810184848401111561258b5761258a61249c565b5b61259684828561254d565b509392505050565b600082601f8301126125b3576125b2612497565b5b81356125c384826020860161255c565b91505092915050565b600080600080600060a086880312156125e8576125e761209a565b5b60006125f6888289016122e7565b955050602086013567ffffffffffffffff8111156126175761261661209f565b5b6126238882890161259e565b945050604086013567ffffffffffffffff8111156126445761264361209f565b5b6126508882890161259e565b935050606086013567ffffffffffffffff8111156126715761267061209f565b5b61267d8882890161259e565b925050608061268e88828901612232565b9150509295509295909350565b600067ffffffffffffffff8211156126b6576126b56124a1565b5b6126bf826121a5565b9050602081019050919050565b60006126df6126da8461269b565b612501565b9050828152602081018484840111156126fb576126fa61249c565b5b61270684828561254d565b509392505050565b600082601f83011261272357612722612497565b5b81356127338482602086016126cc565b91505092915050565b600080600080608085870312156127565761275561209a565b5b6000612764878288016122e7565b9450506020612775878288016122e7565b935050604061278687828801612232565b925050606085013567ffffffffffffffff8111156127a7576127a661209f565b5b6127b38782880161270e565b91505092959194509250565b600080604083850312156127d6576127d561209a565b5b60006127e4858286016122e7565b92505060206127f5858286016122e7565b9150509250929050565b7f4e487b7100000000000000000000000000000000000000000000000000000000600052602260045260246000fd5b6000600282049050600182168061284657607f821691505b602082108103612859576128586127ff565b5b50919050565b600060608201905061287460008301866122a6565b612881602083018561233c565b61288e60408301846122a6565b949350505050565b7f4e487b7100000000000000000000000000000000000000000000000000000000600052601160045260246000fd5b60006128d082612211565b91507fffffffffffffffffffffffffffffffffffffffffffffffffffffffffffffffff820361290257612901612896565b5b600182019050919050565b60008190508160005260206000209050919050565b60006020601f8301049050919050565b600082821b905092915050565b60006008830261296f7fffffffffffffffffffffffffffffffffffffffffffffffffffffffffffffffff82612932565b6129798683612932565b95508019841693508086168417925050509392505050565b6000819050919050565b60006129b66129b16129ac84612211565b612991565b612211565b9050919050565b6000819050919050565b6129d08361299b565b6129e46129dc826129bd565b84845461293f565b825550505050565b600090565b6129f96129ec565b612a048184846129c7565b505050565b5b81811015612a2857612a1d6000826129f1565b600181019050612a0a565b5050565b601f821115612a6d57612a3e8161290d565b612a4784612922565b81016020851015612a56578190505b612a6a612a6285612922565b830182612a09565b50505b505050565b600082821c905092915050565b6000612a9060001984600802612a72565b1980831691505092915050565b6000612aa98383612a7f565b9150826002028217905092915050565b612ac28261215f565b67ffffffffffffffff811115612adb57612ada6124a1565b5b612ae5825461282e565b612af0828285612a2c565b600060209050601f831160018114612b235760008415612b11578287015190505b612b1b8582612a9d565b865550612b83565b601f198416612b318661290d565b60005b82811015612b5957848901518255600182019150602085019450602081019050612b34565b86831015612b765784890151612b72601f891682612a7f565b8355505b6001600288020188555050505b505050505050565b60006040820190508181036000830152612ba581856121b6565b9050612bb4602083018461233c565b9392505050565b7f506c65617365207375626d6974207468652061736b696e67207072696365206960008201527f6e206f7264657220746f20636f6d706c65746520746865207075726368617365602082015250565b6000612c1760408361216a565b9150612c2282612bbb565b604082019050919050565b60006020820190508181036000830152612c4681612c0a565b9050919050565b600081905092915050565b50565b6000612c68600083612c4d565b9150612c7382612c58565b600082019050919050565b6000612c8982612c5b565b9150819050919050565b7f5061796d656e74206661696c6564000000000000000000000000000000000000600082015250565b6000612cc9600e8361216a565b9150612cd482612c93565b602082019050919050565b60006020820190508181036000830152612cf881612cbc565b9050919050565b600081519050919050565b600082825260208201905092915050565b6000612d2682612cff565b612d308185612d0a565b9350612d4081856020860161217b565b612d49816121a5565b840191505092915050565b6000608082019050612d6960008301876122a6565b612d7660208301866122a6565b612d83604083018561233c565b8181036060830152612d958184612d1b565b905095945050505050565b600081519050612daf816120d0565b92915050565b600060208284031215612dcb57612dca61209a565b5b6000612dd984828501612da0565b91505092915050565b600081905092915050565b6000612df88261215f565b612e028185612de2565b9350612e1281856020860161217b565b80840191505092915050565b6000612e2a8285612ded565b9150612e368284612ded565b91508190509392505050565b6000604082019050612e5760008301856122a6565b612e64602083018461233c565b9392505050565b7f4e487b7100000000000000000000000000000000000000000000000000000000600052601260045260246000fdfea2646970667358221220cbdda07389e2c83015d2cf7ab1e21cf79e7df4fccd150ace19f1ba75d6c91e5f64736f6c63430008140033",
  "linkReferences": {},
  "deployedLinkReferences": {}
}